:100000008A110D28FF3FFF3FFE00030EFB0004088E
:10001000FC000A08FD008A11D52B8A110F284930EF
:100020008313840061308A11E92783018A153D2CEE
:10003000BB00FF3A031908005E08BF005D08C0005E
:100040005530C100BB08031DFB281330BB00C90895
:10005000031D2F28CB08031D2F281230BB00C91BFE
:1000600035284B08C0390319FB281130BB00FB2889
:100070000730BC003408BD003408BE005530BF0155
:10008000C00018295408B50005300310B50CFF3E18
:10009000031D45288030C8238A1128385B2854085E
:1000A000B50005300310B50CFF3E031D522880300B
:1000B000C8238A110838BC006008C2238A1154087A
:1000C000B6000310B60D0310B60D0310360D8A23CB
:1000D0008A1160087728600E0F390238BC00590871
:1000E000C2238A11600EF0398A238A115908B70099
:1000F000B70CB70C370CC0393604F8285908B500CE
:1001000004300310B50CFF3E031D81286008B600C3
:1001100001300310B60DFF3E0310031D8A28360D73
:1001200035048038BC004908B50001300310B50C17
:10013000AF238A11590EF03937043604BD00A523C8
:100140008A114E08B70037300310B70C3705B800D6
:1001500049080739B900B90CB90C390CC039380451
:100160003604F928BC015908B50079238A114908D9
:10017000B5000330AF238A110310B70D5908B8003A
:1001800004300310B80DFF3E0310031DC228380DC4
:1001900037043604BE00A5238A116E304E05B70021
:1001A00049080739B80006300310B80DFF3E0310A8
:1001B000031DD528380D37043604BF001829BC01AB
:1001C000BC0A5908B50079238A113B08043A00306B
:1001D000031D0130B500350EF039B5005908B600E1
:1001E00004300310B60DFF3E0310031DF228360D38
:1001F0003504BE0018293B08013A03193828033A90
:1002000003196B28013A03196B28073A0319DF28F1
:10021000013A0319DF28033A0319B228173A0319E0
:100220004F28033A03194228013A03197E28182956
:100230000330BA002B298312BA08031937290D306D
:10024000B600FB30B500B50B2329B60B23292829AE
:1002500083120313BA035308A9000630AA003C30E6
:10026000AB0052083D218A11003A031D1B290530BD
:100270008312D3070318D20A0800B0000030B2017D
:10028000DD228A11003A031D01348312A030A5013A
:1002900082228A11003A03194F29033062298312FE
:1002A000A501300882228A11003A03195929043025
:1002B00062298312A501290882228A11003A0319B2
:1002C000642905308312922903308312B100B301EF
:1002D0002A08330203189A29290899238A112E081B
:1002E0007F3A2F0403197B29290899238A112E0AA2
:1002F0002F04031D82292908031982292908803A1D
:10030000031D9A29A50133082B07AC008400831331
:10031000000882228A11003A031994298312330EAD
:10032000F0390738B2009A298312B30A682998294C
:10033000992900000030FD228A11003A0319A229F0
:10034000B10B9729B108031DA9290130FD22023004
:10035000B20032080800FF30B200B001B101D20192
:10036000D301C7290530D3070318D20A5308AA00BE
:100370003230AB0052083A228A1183123208C8394F
:10038000083A031DC7295208B0005308B1003208CB
:10039000553A0319CF295208FF3A031DB2293208F2
:1003A000553A0319D629D201D3010800B008031920
:1003B0003108031908003108AA003230AB003008B8
:1003C0003A228A118312321EE7298430E8297B30D1
:1003D000DB00B21EEE29C901CB01F2298030C90031
:1003E000C030CB0032080739AF0004300310AF0D26
:1003F000FF3E0310031DF7292F0DD400B9238A11E6
:100400003A228A1183123208AF000310AF0C031096
:10041000AF0C0310AF0C2F081F39D4043208073972
:10042000AF0001300310AF0DFF3E0310031D132A70
:100430002F0DE000B9238A113A228A118312320863
:10044000AF0006300310AF0CFF3E031D222A2F0819
:100450000339E004E00AE00A6008183A0319342A74
:100460006008193A031D372A1830E002D40AD9016E
:10047000D90A0800AC000330AE000030DD228A113A
:10048000003A031D08008312A030A50182228A11C0
:10049000003A031D752A8312A5012C0882228A11B5
:1004A000003A031D752A8312A5012A0882228A11A7
:1004B000003A031D752A0130DD228A11003A031D1E
:1004C000752A8312A130A50182228A11003A031DE8
:1004D000752A83122B08A500C830A60000302623F9
:1004E0008A11752A732A742A00000030FD228A11AD
:1004F000003A03197D2AAE0B722AAE08031D0800CC
:100500000130FD2AA7008C11831606130000083065
:1005100083120313A800A8080319C52AA71F932A4A
:1005200083160616952A83160612000083160313F7
:1005300006179A2A9B2A0000C83083120313A600CC
:10054000AC2AA6080319AE2A83160617A72AA82ADA
:10055000000083120313A603061FA12A061BB32A59
:10056000831606130A34A71B061ABB2A8316061322
:1005700083128C110B348316061383120310A70DFC
:10058000000083120313A8038B2A831606160000AB
:10059000831603130617CC2ACD2A000000308312DD
:1005A0000313061A0130A8008316061383128C1158
:1005B000250803190034280808008312A500A5089F
:1005C000031DE82A8316141AE82A141E941901340C
:1005D000831606160617EC2AED2AEE2A8316031355
:1005E000061283120612F42AF52A0000831603135A
:1005F0000613831206138C11003483120313A50013
:100600000330A6008C118316061200008316031314
:100610000617112BA6080319152BA6030F2B102B59
:10062000000083120313061F0A2B162B172B000042
:1006300083120313061F1E2B8316D12B25080319C3
:10064000242B8316061683128C110134A70025086B
:100650008400831380018316061306168312A801F3
:10066000312B322B332B8312031325088400831381
:100670000310800D2608A900402BA90803194A2B56
:1006800083160617432B442B000083120313A90380
:10069000061F3D2BA908031D4F2B8C110A34061E83
:1006A000552B250884008313001483160613831228
:1006B0000830A80A2802031C302B5E2B5F2B602B0E
:1006C00000008312031327080319692B83160612EF
:1006D0006B2B831606160000831603130617702B68
:1006E000712B0000831603130613000083160313F7
:1006F000D12B0310B50C0310B50C0310B50C60081A
:10070000B6000310B60D0310B60D0310360D3504F8
:10071000BD0008003504BD0007304905B5004B0891
:100720000739B6000310B60D0310B60D0310B60D51
:1007300008003307AC00AD01AD0DFF3EAE002D0843
:100740000318013EFF3EAF000800070CB500B50CD2
:10075000350C0139B600360EF039B600080003102A
:10076000B50C3505B6004B080739B7000310B70DB7
:100770000800B10A0318B00A3108AA003230AB00F1
:1007800030080800B5000310B50C0310B50C0800C4
:100790005B02003003180130B600360EF039350424
:1007A0000800061683128C1100340B1CDE2B8312FA
:1007B0000313060806080B10FF30D1008312031341
:1007C0000C1CE62B0C101030DA074C148C1DE92B96
:1007D000F2237D088A007C0884007B0E8300FE0ED5
:1007E0007E0E09008C1D080014138316141DB82CEE
:1007F0008312141E502CB32D7A30F000F101F10A4F
:100800005608FD258A117A08831203139300D60136
:10081000B52C54084C2C60084C2C59084C2C5A0808
:100820004C2C52084C2C53084C2C5E084C2C5D0868
:100830004C2C4E084C2C49084C2C4B084C2C4C088A
:100840004C2C65084C2C64084C2C61084C2C63081B
:100850004C2C66084C2C5B084C2C0030861B01305D
:100860004C2C0030871A01304C2C0030071A013014
:100870004C2C0030861A01304C2C04304C2C0930A2
:100880004C2C0030051901304C2C0030071B013076
:100890004C2C5F084C2C5C089300B52C9301B52CB4
:1008A0005508013A0319092C033A03190B2C013A94
:1008B00003190D2C073A03190F2C013A0319112CB7
:1008C000033A0319132C013A0319152C0F3A031993
:1008D000172C013A0319192C133A03191B2C013A4E
:1008E00003191D2C073A03191F2C013A0319212C57
:1008F000033A0319232C013A0319252C3F3A031913
:10090000272C013A0319292C033A03192B2C013AFD
:1009100003192D2C073A0319312C013A0319352CF0
:10092000033A0319392C013A0319B52C0F3A03196C
:10093000B52C013A03193D2C033A03193F2C013A17
:100940000319412C073A0319452C013A0319B52C18
:10095000033A0319492C013A03194B2C1E3A031987
:100960004E2C033A0319FC2B4E2C1416D501B32D33
:10097000141CB32D941A3F2D83121308B62C1308A0
:10098000D400A82D1308E000A82D1308D900A82D25
:100990001308DA00A82D1308D200A82D1308D300DD
:1009A000A82D1308DE005E30F6001530F701B625DD
:1009B0008A11A82D1308DD005D30F6001030F70114
:1009C000B6258A11A82D1308C900A82D1308CB003D
:1009D000A82D1308A82D1308E500A82D1308E4007E
:1009E000A82D1308E100A82D1308E300A82D130873
:1009F000E600A82D1308DB00A82DE92C1308FA0047
:100A00007A08031D871403198710A82D1308FA000C
:100A10007A08031D071503190711A82D1308FA00FA
:100A20007A08031D871503198711A82D1308FA00EA
:100A3000DF007A30F6001530F701B6258A11A82DAF
:100A40001308FA00DC007A30F6001030F701B62502
:100A50008A11A82DD608031D302D1308D600A82D05
:100A60001308FA007A30F000F1015608FD258A11CA
:100A700083120313D601A82D1308D700A82D8312C3
:100A80005508013A0319BF2C033A0319C22C013A45
:100A90000319C52C073A0319C82C013A0319CB2CAA
:100AA000033A0319CE2C013A0319D12C0F3A03193A
:100AB000DA2C013A0319E32C133A0319E32C013A17
:100AC0000319E62C073A0319E92C013A0319EB2C18
:100AD000033A0319EE2C013A0319F12C3F3A03199A
:100AE000F42C013A0319F72C033A0319FA2C013AB2
:100AF0000319FD2C073A0319E92C013A0319E92CD3
:100B0000033A0319E92C013A0319FE2C0F3A031991
:100B1000062D013A0319E92C033A0319E92C013A8D
:100B20000319E92C073A0319E92C013A03190E2D90
:100B3000033A0319162D013A0319202D1E3A031901
:100B4000E92C033A03192A2D013A03193C2DE92C0B
:100B500083120313D508031DB02D1308D500B32D40
:100B6000D6080319B62C83128C110800A300F708CD
:100B7000031DD82D2308A4002308053EF8000030EB
:100B800003180130F900803A803C031DC92D780814
:100B90002402031808007608F0007708F100831299
:100BA00003132408FD258A1183120313A40ABC2D04
:100BB0002308043EA40038268A11FD258A11312617
:100BC0008A11A100A001A00AA40338268A11FD25DC
:100BD0008A1131268A112106003003190130A0073D
:100BE000230824020318E42D03302002031C08000C
:100BF00076088400210880000800F40000308B1B78
:100C00000130F5008B13740803178D0083168C13C5
:100C100071080319132E0C147008840083120C0839
:100C2000831380002B2E7008840083130008831226
:100C30008C0083160C1555308D00AA308D008C1455
:100C40008C18202E8230F300DD30F200F20B262EBD
:100C5000F30B262E2B2E7508031D8B1703198B13F0
:100C60000800760884008313000883120313080029
:100C70007608F0007708F1002408080062030319E1
:100C80006B2E6208053A03196B2E6208033A0319AA
:100C90006B2E6208043A03196B2E6208063A031998
:100CA0006B2E6208023A03196B2E872E861F5A2E6E
:100CB000CD0A7F2ECD037F2E861A582E5A2E871EE0
:100CC000582E5A2E071E582E5A2E051D582E5A2EB3
:100CD000071F582E5A2E6208013A0319562E033A5E
:100CE0000319682E013A03195F2E073A0319622E81
:100CF000013A03195C2E033A0319652E7F2E102743
:100D00008A11003A0319872E01304A278A1183126B
:100D100003130C1F08000C1362080319932E6208BA
:100D2000073A031DC42EE208031DAB2E83161E08CE
:100D30008312BD278A11AF00DE08031DA12E2F08E4
:100D4000AA2E2F08A700A8015E08CC278A11CB265F
:100D50008A112508DE006208073A031DC42E831697
:100D60001E088312BD278A11B000DD08031DBA2EAC
:100D70003008C32E3008A700A8015D08CC278A11CF
:100D8000CB268A112508DD0010278A11003A0319A5
:100D9000080001304A2FAA01A61FD52EA509A609D1
:100DA000A50A0319A60AAA01AA0AA81FDE2EA709E6
:100DB000A809A70A0319A80A0130AA06AB01AC01C9
:100DC000260825040319032FA901A90AA61BEC2E46
:100DD0000310A50DA60DE52E0310AB0DAC0D2608D6
:100DE0002802031DF52E25082702031CFF2E2508C7
:100DF000A7022608031CA803A8022B140310A60CA4
:100E0000A50CA90BEC2E2A0803190B2FAB09AC0972
:100E1000AB0A0319AC0A2C08A6002B08A500080091
:100E2000CA0B402F83304D02031C212F0130A50037
:100E3000620A1C2F0310A50DFF3E031D1A2F250863
:100E4000CE047E304D020130A500620A0318372F10
:100E50002B2F0310A50DFF3E031D292F2508FF3A58
:100E6000CE050130A500620A372F0310A50DFF3E05
:100E7000031D352F2508FF3AD1050930E200003463
:100E80000430A600E430A500A50B442FA60B442F88
:100E90000000013483120313AA005108031908004B
:100EA000AA08031D572F6208093A031D0800CA0843
:100EB000031D5E2F0330CA008030CD00D11C632F8C
:100EC000E201E20A0800D11E682F0530E2000800A6
:100ED000511D6D2F0230E2000800D11D722F03302A
:100EE000E2000800511E772F0430E2000800511F75
:100EF0007C2F0630E2000800511C832F0430E201F1
:100F00008B27DE010800D11F08000730E2000930FE
:100F10008B27DD010800A9009F1808009E01831699
:100F20009E0183122908A500A6010310A50DA60D98
:100F30000310A50DA60D1F083C39A700A80126081F
:100F40002806031DA52F250827060319B82FC3302F
:100F50009F052908A50001300310A50DFF3E0310D1
:100F6000031DAD2F250D9F040530A500A50BB62F41
:100F7000831203130C139F140800AD000310AD0C73
:100F80001E08AE0006300310AE0DFF3E0310031D19
:100F9000C42F2E0D2D040800A7070318A80A02303D
:100FA000A500A601080083168E1C031ED92F8319E5
:100FB00001340E1C031EDE2F83190234031E831915
:100FC000E22F0434031A8319E62F0534031E033479
:100FD000063464008001840A040603190034040600
:100FE000EA2FFF3FFF3FFF3FFF3FFF3FFF3FFF3F36
:10176000FF3FFF3FFF3FB200AC08031DD02B320804
:10177000B3003208053EAD00003003180130AE0062
:10178000803A803C031DC62B2D0833020318003419
:101790008312031337248A15F9238A15B30AB92B48
:1017A0003208043EB30037248A15F9238A152B0822
:1017B000840083130008B000AF01AF0AB3033724DD
:1017C0008A15F9238A152B08840083130008300634
:1017D000003003190130AF07320833020318DE2B43
:1017E00003302F02031C01342B08840030088000D2
:1017F0000034A90000308B1B0130AA008B1329088C
:1018000003178D0083168C13831203132608031904
:10181000152C831603170C14831203132508840058
:1018200003170C08831380002F2C250884008313D2
:10183000000803178C0083160C1555308D00AA3054
:101840008D008C148C18222C823083120313A80074
:10185000DD30A700A70B2A2CA80B2A2C2F2C8312D3
:1018600003132A08031D8B1703198B1308002B0879
:10187000A5002C08A60033080800FF30DA01D901C2
:10188000E001D401D201D301CB01C901E100E5009F
:10189000E400E300E6000930CC01CF01E200CE0114
:1018A000CD0190018B01850186018701FF308316F0
:1018B00085009501860083120317950196179616E9
:1018C000F1308316031387001030831203179E0034
:1018D00002309F003030831603139F009130831233
:1018E0009F00850186018701640083120313810133
:1018F000831681156400F8308316031381050108EF
:10190000F839053881001730970006308312C4007B
:101910001330C300B130C200C20B8C2CC30B8C2C13
:10192000C40B8C2C932C5F3083120313AB00153047
:10193000AC01AC0A8A15B3238A15003A0319A42C0A
:10194000933083120313DF005C3083120313AB0068
:101950001030AC01AC0A8A15B3238A15003A03197A
:10196000B52CD63083120313DC0042308A1573265F
:101970008A158430DB008A11AB218A155B08D00000
:101980008A11D3278A158312C500B40001308A1149
:1019900018208A158F018E013E3090000630C40059
:1019A0001330C300B130C200C20BD42CC30BD42CF3
:1019B000C40BD42CDB2C8312031310140630C40088
:1019C0001330C300B130C200C20BE42CC30BE42CB3
:1019D000C40BE42CEB2C8312FF300313C801D50198
:1019E000D601D7008C018D01093083168C008C152F
:1019F000C8308B006400FF3083120313D1008312C0
:101A00000313D10803190C2D00308A114A278A15B7
:101A10008A113E268A15FF2C5708FF3A031D182D00
:101A20008A1590268A15C600B4018A1118208A15D5
:101A30004C1C242D48308A1544258A15C700B40152
:101A40008A1118208A154C10C91B2A2D4B08C03941
:101A50000319362D071187108711CC193E2D02303E
:101A6000B4018A1118208A15CC153E2DCC1D3E2DAF
:101A70000330B4018A1118208A15CC11D108031D36
:101A8000FA2C64006300FA2CAC00FF30AB004C1C55
:101A9000FF343C305A02031C742D3C30D90ADA0260
:101AA00059083C3A031D5E2DE00AD9016008183A36
:101AB000031D5C2DD40AE0016018AB014908133AFC
:101AC000031D702D2C08840083130008063A031DA3
:101AD0006E2D2C0884008001AB01742DAC0A742D8E
:101AE0002C088400831380015708FF3A03197A2DCC
:101AF000D703652E67268A156508FF3A0319A82DB6
:101B0000E50BA82D922D8130902D8430902D8330BF
:101B1000902D8230902D8530902D8730902D803003
:101B2000C900A62D4908003A03198D2D113A031951
:101B3000832D033A0319852D013A0319872D073A9E
:101B40000319892D013A03198B2D8F2DFF30E500E4
:101B50006408FF3A0319EA2DE403CB08031DB42DF2
:101B6000C630CB00FF30E400E408031DEA2D4B082B
:101B7000073A0319E82D4B08033A031DD12DE82D30
:101B8000C130CF2DC230CF2DC330CF2DC430CF2D9B
:101B9000C530CF2DC730CF2DC630CF2DC030CB00B4
:101BA000E82D4B08003A0319CC2D013A0319C02D3A
:101BB000033A0319C22D013A0319C42D073A031938
:101BC000C62D013A0319C82D023A0319CA2DCE2D8C
:101BD000FF30E4006108FF3A031DE1036308FF3AA8
:101BE000031DE3035808FF3A031DD803C908031D6A
:101BF0001C2ECB08031D1C2E6108FF3A031D1C2E52
:101C00006508FF3A031D1C2E6408FF3A031D1C2EB5
:101C100081305E02031C162E5E085F02031C162E26
:101C2000F9306602031C222EE603222E6608FF3AD4
:101C30000319222EE60A222E6608FF3A0319222EE5
:101C4000FF30E6005C085D020318372E84305B022B
:101C50000318652EDB0A5B08843A031D652E5B08BA
:101C600050060319652E0530AB008430642E7C309D
:101C70005B02031C652E5B08843A03194C1B582E2B
:101C8000CB08031D582EC908031D582E0715063012
:101C9000AA001330A900B130A800A80B4D2EA90B43
:101CA0004D2EAA0B4D2E542E8312031307114C17E1
:101CB000DB035B087B3A031D652E5B0850060319A6
:101CC000652E0430AB007B30D0002B080800941246
:101CD0000D30A700FB30A600A60B6C2EA70B6C2EB8
:101CE000712E4230732E83120313A500831606163D
:101CF0000617940109308312940025088316930077
:101D0000831225088316930083121408F0390E38C5
:101D100094001416FF308316930083129416080063
:101D2000FF30A8004E1BCE1D9D2EC91B9B2E4B08BD
:101D3000C03903199D2EC901CB01C91BFF344B08C3
:101D4000C039031DFF344E1FD62E4B08043A031929
:101D5000E32E4B08053A0319E32EFF30E1004C1A3D
:101D6000B22E4C13CE1DCA2E4B08073A0319C52EAE
:101D70004B08033A0319C52E6308FF3A031DC52E0D
:101D80001030E4000730CB00A8010730CB004C1224
:101D90004C13E32E4B08023A031DD32E1030E400FF
:101DA0000330CB00A8010330CB00E32E4B08023AEE
:101DB0000319E32E4B030319E32E4B080319E32EFB
:101DC0001030E300CB014E1DF72E4908143A0319D9
:101DD0000D2F4908153A03190D2F4908133A031915
:101DE0000D2FFF30E500E1001330C9000C2F49082A
:101DF000123A03190D2F4908113A03190D2F4908FA
:101E000003190D2F4908133A031D082F1030E10064
:101E1000FF30E500C9018711A801CE181A2F4B0821
:101E2000073A03195E2F7F305B02031C5E2FCF0140
:101E3000CF0A5E2F4F0B3D2F0B30CF01A70026306E
:101E4000A6006630A500A50B232FA60B232FA70BFA
:101E5000232F2A2F8312031307150B30A7002630D8
:101E6000A6006630A500A50B332FA60B332FA70BBA
:101E7000332F3A2F8312031307114908153A031D14
:101E8000462F87111430C9000430E5004B08053A8D
:101E9000031D5E2F0430CB00E40087140330A7003D
:101EA0008A30A6005630A500A50B542FA60B542F40
:101EB000A70B542F5B2F831203138710CE1A812F89
:101EC000C908031DA22FCB08031DA22F6108FF3AEA
:101ED000031DA22F6508FF3A031DA22F6408FF3AD5
:101EE000031DA22F80304C125B0203187C2F11308F
:101EF000C9000430E500A22F0430CB01CB0AE40076
:101F0000A22F4908113A031D8B2F87150430E500D5
:101F10001230C900A8014B03031DA22F0230FB277A
:101F20008A150330A7008A30A6005630A500A50BFD
:101F3000972FA60B972FA70B972F9E2F8312031374
:101F40008710A801E108031DC32FFF30E100CB0873
:101F5000031DC32FC908031DC32F0230CB008714F4
:101F60000330A7008A30A6005630A500A50BB62F77
:101F7000A60BB62FA70BB62FBD2F83120313871006
:101F80000430E400A8016608F83A031DF92FC908D7
:101F9000031DF92FCB08031DF92F6108FF3A031D1C
:101FA000F92F6508FF3A031DF92F6408FF3A031D56
:101FB000F92F80304C165B020318E42F871504308C
:101FC000E5001230C900F72F0230FB278A150330D5
:101FD000A7008A30A6005630A500A50BED2FA60B52
:101FE000ED2FA70BED2FF42F83120313871006306C
:101FF000A80028080800CB000430E400871408007B
:02400E0024F795
:10420000FF00FF00FF00FF00FF00FF00FF00FF00B6
:10421000FF00FF00FF00FF00FF00FF00FF00FF00A6
:10422000D600D600D600D600D600940094009400A4
:1042300094009400FF00FF00FF00FF00FF00FF005C
:00000001FF
